:1000000027C0E3C9E2C9E1C9E0C9DFC9DEC9DDC96A
:10001000DCC9D6C8DAC931C5D8C9D7C9D6C9D5C986
:10002000D4C9D3C9D2C900600062800062007C00DC
:1000300013D4007C009580009500B80013EE00B842
:1000400000C08000C000C100141100C100C38000C6
:1000500011241FBECFE5D4E0DEBFCDBFE6E2F0E065
:1000600040E017C0B591A59135912591059107FD07
:100070000CC095918591EF01F92FE82F05900D9215
:10008000A217B307D9F7FE0104C01D92A217B30748
:10009000E1F7EF34F40731F7A5D86DC9F894FFCF35
:1000A000AEE0B0E0E5E5F0E0FCC74C016B011A8280
:1000B00019828FEF9FEF9C838B831E821D8258874E
:1000C0004F833A872987A12CB12CD6016D907C9063
:1000D000F301EA0DFB1D808181110FC0D601ED9364
:1000E000FC938081853209F0BEC13F01BFEF6B1ADE
:1000F0007B0AF6017182608218C0853279F3B401FF
:10010000082E000C990B2AD44FEFA41AB40ADDCFA5
:100110008C32ACF08D32F9F489819A8181609A83B6
:1001200089833196D601ED93FC93D601ED91FC9134
:1001300080818B3269F789819A818460F0CF803227
:1001400021F489819A818860EACF833251F48981D0
:100150009A818061E4CF803321F489819A81826021
:10016000DECFB701C601A9D69E838D8397FF0BC052
:1001700029813A81B1E02B273A8329839195819592
:1001800091099E838D8389819A8180FF03C08D7F31
:100190009A838983D601ED91FC91119780818E32EB
:1001A00041F43196ED93FC93B701C60186D69C834A
:1001B0008B83C601F8D6582ED601ED91FC91808133
:1001C000082E000C990BCFD8893609F440C084F46E
:1001D000833609F4F3C034F4853209F418C181364A
:1001E000D9F021C1843699F188360CF4CCC01BC1FA
:1001F000803709F490C03CF48E3609F4B0C08F36D5
:1002000009F45AC010C18537E1F1883709F46EC08E
:10021000833709F008C1E5C0652D70E0A701CE0164
:100220000B96EEDE892B09F418C1D601ED91FC91F5
:100230001197CF0101968D939C932081AE01455F6C
:100240005F4FBE016F5F7F4FC401DADE03C1652DD2
:1002500070E0970141E050E0CE010B9660D2892B0F
:1002600009F4FBC0F601808191810196918380831E
:10027000AE01455F5F4FBE016F5F7F4FC401E1D1AB
:10028000E9C0652D70E0970140E050E0CE010B968B
:1002900046D2892B09F4E1C0D6018D919C9111972A
:1002A00001968D939C93AE01455F5F4FBE016F5FDA
:1002B0007F4FC4019FD3CEC0652D70E0970140E011
:1002C00050E0CE010B962BD2892B09F4C6C0F60163
:1002D00080819181019691838083AE01455F5F4F5C
:1002E000BE016F5F7F4FC401E4D2B4C0652D70E0E2
:1002F000970140E050E0CE010B9611D2892B09F412
:10030000ACC0D601ED91FC911197CF0101968D9370
:100310009C9320811BC0970140E050E060EF70E0AB
:10032000CE010B96FCD1892B09F497C0F601808190
:1003300091810196918380838B859C85892B29F4FB
:1003400020E030E042EB50E080C028E7AE01455F9E
:100350005F4FBE016F5F7F4FC40189D07BC0A50195
:10036000400F511F652D70E09701CE010B9648DEBE
:10037000892B09F472C0D6018D919C911197019639
:100380008D939C9370C0652D70E0A701CE010B96F4
:1003900037DE892B09F461C0D601ED91FC911197EC
:1003A000CF0101968D939C932081AE01455F5F4FF5
:1003B000BE016F5F7F4FC40123DE4CC0B0E85B120B
:1003C0004CC0F60180819181019691838083D70191
:1003D000ED91FC911197CF0102968D939C938081B2
:1003E00020C0B0E85B1239C0F6018081918101968E
:1003F00091838083D701ED91FC911197CF010296F3
:100400008D939C934081518120E030E01EC0B0E884
:100410005B1223C0F601208131812F5F3F4F318372
:1004200020838B870DC085E28B87D6016D927C92ED
:100430001A8219821E821D828FEF9FEF9C838B830D
:1004400021E030E0AE01455F5F4FBE016F5F7F4F3F
:10045000C40161D58A0D9B1D07C0F6018081918181
:0E046000019691838083C5012E96EFE036C68B
:10046E00AFE0B0E0ECE3F2E012C61C016B015A8380
:10047E0049832B83FB018281938184809580008147
:10048E001181A680B78097FD02C00D7F02C081E06A
:10049E0090E0E981FA8140805180628073809801FA
:1004AE00207133273D832C83740104FF08C041144F
:1004BE0051046104710419F032E0E31AF108F801F5
:1004CE00E870FF27FF83EE8303FF03C0F1E0EF1A0E
:1004DE00F108F6010084F185E02D3197FF87EE8754
:1004EE00EA0DFB1D10829C012E193F0939872887C2
:1004FE00C801827099279B878A87EB818E2FEE0F1A
:10050E00990B9C01215431093D872C872E853F85FF
:10051E002230310530F48C819D81892B09F041C048
:10052E005BC0411451046104710459F18E859F859D
:10053E0001979F878E87C2018F7099278A30910508
:10054E0014F4C09602C0895A9F4FEC85FD857A97A8
:10055E0040F49C012062215631092A31310508F4FC
:10056E00F2D6EE85FF85EA0DFB1D8083F1E0EF1AD2
:10057E00F10884E076946794579447948A95D1F75E
:10058E00C5CF888599858E0D9F1D1816190674F294
:10059E001E141F040CF0BFCFEA85FB85EF2B31F63E
:1005AE00BACFE981FA8180819181A281B381892BB1
:1005BE008A2B8B2B89F0EE85FF85EA0DFB1D31977B
:1005CE002B8120838E859F8502979F878E87FC01C6
:1005DE00EA0DFB1D80E38083EE81FF81EF2B59F046
:1005EE002E853F85215031093F872E87F901EA0D6F
:1005FE00FB1D80E28083F6014085518541505109F3
:10060E002E853F85421B530BB9016A0D7B1D94014C
:10061E00C10185D39C01F1018081918190FF06C0BB
:10062E00F60182819381821793070CF4C9012F96EC
:04063E00E2E149C5E7
:10064200A2E0B0E0E6E2F3E028C53C016B01FB0169
:1006520022813381A480B580808191819A838983AC
:1006620086809780FA012080318042805380B201D7
:10067200A10157FE07C044275527BA014219530961
:100682006409750937FD03C08D7F9A8389839501BB
:1006920057FC05C0898182FD02C083FF02C0215040
:1006A2003109CE0101967C010AE010E0C6019ED01C
:1006B20057FC03C0298122FF0AC00197F401E80F09
:1006C200F91F57FC02C02BE209C02DE207C023FF2D
:1006D20006C00197F401E80FF91F20E22083098187
:1006E2001A81F6014085518541505109481B590B29
:1006F200B401680F791F9501C30117D39C01F3015F
:100702008081918190FF06C0F601828193818217D8
:0C07120093070CF4C9012296E2E1DBC45D
:10071E00CF93DF93DC01F90168387105F1F05CF4D9
:10072E006138710561F164387105A1F160387105A8
:10073E0009F051C02FC0603C710509F441C0603F03
:10074E007105F1F1603A710509F045C0C081D181A2
:10075E00CE0102969183808325C0C081D181CE01C6
:10076E00029691838083452B39F04881042E000C2C
:10077E00550B660B770B1CC0488150E029C0C08119
:10078E00D181CE01049691838083488159816A81FB
:10079E007B810EC0C081D181CE0102969183808370
:1007AE00452BA1F048815981052E000C660B770B65
:1007BE004D935D936D937C93139781E090E00DC004
:1007CE00C081D181CE010296918380834881598167
:1007DE0060E070E0EDCF80E090E0DF91CF91089582
:1007EE00A0E0B0E0ECEFF3E054C4DC012801169673
:1007FE00AD90BC901797F701808191811296ED9183
:10080E00FC9113971896CD91DC9119972197F7FFCC
:10081E0002C0E1E0F0E0CA0DDB1D18826901A1E023
:10082E00B0E08F01021B130B4C01F2E08F229924D2
:10083E00052C000C66087708CE018A199B09CA158B
:10084E00DB0511F1411551056105710581F0CB01F3
:10085E00BA01A30192017ED3CA01A62FB72F605D04
:10086E006A9341E0C41AD108A901BC01E5CF9801F1
:10087E002C0D3D1D1216130654F31C141D0434F4D6
:10088E008114910421F702C080E090E0AB2B31F48B
:10089E00F701208131812F7E31832083CDB7DEB7E2
:0408AE00E0E113C4AE
:1008B200A2E0B0E0EEE5F4E0F4C34C016B01FB0111
:1008C2002281338164807580808191819A838983BA
:1008D200A680B78037FD03C08D7F9A838983FA0192
:1008E2004081518162817381CE0101967C0108E0D1
:1008F20010E09301C6017ADF298124FF06C0019727
:10090200F501E80FF91F20E32083298123FF06C0A8
:100912000197F501E80FF91F20E2208309811A816E
:10092200F6014085518541505109481B590BB501CB
:10093200680F791F9301C401F8D19C01F4018081F1
:10094200918190FF06C0F6018281938182179307FD
:0A0952000CF4C9012296EEE0C0C3C8
:10095C000F931F93CF93DF93DB01109719F48FEF55
:10096C009FEF3DC02D913C91119730FF25C01696FD
:10097C004D915C91179714962D913C9115974217B8
:10098C00530778F41296ED91FC911397808312968D
:10099C002D913C9113972F5F3F4F13963C932E93C1
:1009AC00129716962D913C9117972F5F3F4F1796E4
:1009BC003C932E93169713C01C96ED91FC911D97AA
:1009CC00309769F2EB01092F182F0995892B39F60D
:1009DC008E819F8101969F838E83812F902FDF9133
:0809EC00CF911F910F910895B6
:1009F400A2E0B0E0EFEFF4E053C35C016B01FB0154
:100A04002281338184809580808191819A83898336
:100A14006680778037FD03C08D7F9A838983FA01CE
:100A24004081518162817381CE0101967C010AE08B
:100A340010E09401C601D9DE09811A81F6014085CE
:100A4400518541505109481B590BB301680F791F57
:100A54009401C50169D19C01F5018081918190FFC8
:100A640006C0F60182819381821793070CF4C901B1
:060A74002296EEE031C302
:100A7A001F920F920FB60F9211242F933F934F9309
:100A8A005F936F937F938F939F93AF93BF93EF93EC
:100A9A00FF938CB18436B9F028F4813691F082360E
:100AAA0041F012C0823759F0833729F08C3661F44D
:100ABA0004C0DED309C0A0D307C099D105C0C2D0F3
:100ACA0003C04ED301C036D3FF91EF91BF91AF91CE
:100ADA009F918F917F916F915F914F913F912F914C
:0A0AEA000F900FBE0F901F9018959B
:100AF4008091BE009091BF002091BC003091BD0058
:100B040082179307BCF04E969093BF008093BE006B
:100B14009093BD008093BC008F3F91054CF49BBD26
:100B24008ABD8091BE009091BF0099BD88BD089593
:100B340075D30895225E3F4F3093BD002093BC00CF
:100B44003093BF002093BE002F3F31054CF43BBDD2
:100B54002ABD8091BC009091BD0099BD88BD0895C7
:040B64005DD30895C0
:100B68008091BE009091BF002091BC003091BD00E3
:100B780082179307BCF04E979093BF008093BE00F6
:100B88009093BD008093BC008C3491054CF09BBDC4
:100B98008ABD8091BE009091BF0099BD88BD08951F
:100BA80068D308952E5131093093BD002093BC00BD
:100BB8003093BF002093BE002C3431054CF03BBD70
:100BC8002ABD8091BC009091BD0099BD88BD089553
:040BD80050D3089559
:100BDC00A2E8B0E0E3EFF5E061C25C014A01CF5757
:100BEC00DF4F79836883C158D040C12CD12CCF57AB
:100BFC00DF4FE881F981C158D04080818823E1F032
:100C0C007401860120E830E0AE014F5F5F4FBE01FA
:100C1C006F577F4FC5013EDA8C0D9D1D8C159D05C0
:100C2C004CF48FE490E090936100809360008FEF20
:100C3C009FEF03C06C01DBCFC601CE57DF4FECE05A
:020C4C0049C29B
:100C4E008091BE009091BF00892B41F48091BC0031
:100C5E009091BD00892B11F4AED3CCD28091BC0003
:100C6E009091BD004E979093BD008093BC008C3444
:100C7E0091054CF099BD88BD8091BE009091BF004A
:100C8E00892B71F0089519BC18BC1092BD001092FA
:100C9E00BC008091BE009091BF00892B41F406C02C
:100CAE008091BC009091BD00892B09F484D30895E6
:100CBE00A0E1B0E0E4E6F6E0F6C1FB01BA01AE0158
:100CCE004F5F5F4F7A0140E1D7011D924A95E9F7D8
:100CDE0042E051E05A8349839C838B83F7FF09C01E
:100CEE008FE490E090936100809360008FEF9FEF10
:100CFE0013C0A9018C013197FE83ED83C70144D245
:100D0E004F8158852D813E814217530708F49A0171
:0E0D1E00F801E20FF31F10826096E6E0E0C1DC
:100D2C00A0E0B0E0EBE9F6E0B9C16C015B017A013F
:100D3C00E901480181E08822992400FD03C0421793
:100D4C00530748F0A701B501C601D9D1EC16FD0631
:100D5C0010F0C70115C08E010E191F0901151105E0
:100D6C0039F0B60180E290E0F3DD01501109F6CFC5
:100D7C008114910421F4A701B501C601C0D1CE01A3
:080D8C00CDB7DEB7ECE0A6C113
:100D9400CF93FCD2C4E6C89F9001C99F300D1124A3
:100DA400A1E8B0E8ACD2880F892F881F990B9195E0
:100DB4009093BB008093BA00EED2C89F9001C99F64
:100DC400300D1124A1E8B0E89AD2880F892F881F2A
:100DD400990B91959093B9008093B800B0D2882371
:100DE40021F082E78093C00003C08FE68093C000A7
:040DF400CF910895FE
:100DF8008091BE009091BF00892B41F48091BC0086
:100E08009091BD00892BB9F4D9D2F7D18091BE0059
:100E18009091BF004E979093BF008093BE008C3492
:100E280091054CF09BBD8ABD8091BE009091BF009A
:100E3800892B71F406C01BBC1ABC1092BF0010921B
:100E4800BE008091BC009091BD00892B09F4B6D2F8
:020E58000895FB
:100E5A000F932223B1F01F920F935F934F937F93C7
:100E6A006F9322E630E03F932F939F938F93F1D1B4
:100E7A008DB79EB70A960FB6F8949EBF0FBE8DBF68
:100E8A0015C01F920F935F934F937F936F932FE633
:100E9A0030E03F932F939F938F93DBD18DB79EB70B
:100EAA000A960FB6F8949EBF0FBE8DBF0F91089594
:100EBA00DC01ED91FC91119780818A3221F080E06A
:100ECA0090E03AE00EC03196ED93FC93DB01ED9190
:100EDA00FC911197CF0102968D939C938081918109
:100EEA000895ED91FC911197208120532A3068F4DE
:100EFA00389FA001399F500D1124CA01820F911DFC
:0C0F0A0031961196FC93EE93ECCF089505
:100F1600A0E0B0E0E0E9F7E0C6C07C01FB01EA0131
:100F2600C901A280B380C480D58000811181209739
:100F360011F4CBEAD0E0009711F4CE01B7D1B7FC9B
:100F460004C0A816B90608F4C5019601AC01BE0195
:0C0F5600C701E9DECDB7DEB7EAE0C1C09C
:100F6200A1E21A2EAA1BBB1BFD010DC0AA1FBB1FAB
:100F7200EE1FFF1FA217B307E407F50720F0A21B1D
:100F8200B30BE40BF50B661F771F881F991F1A948A
:100F920069F760957095809590959B01AC01BD01B4
:040FA200CF010895DE
:100FA600CF93DF93EC0190E0E92FF0E0EE0FFF1F07
:100FB600EB56FF4F8081811102C081810EC0A8814E
:100FC600B9812C91821305C091811196B983A883AA
:100FD60001C09F5F9B3040F3892FDF91CF91089529
:100FE600B99ABA9AC198C2988EB581608EBD8EB5EF
:100FF60082608EBD8EB58B7F8EBD8EB58F7E8EBD8B
:101006008EB5877F8EBD8FB58D7F8FBD8FB5816085
:0E1016008FBD1BBC1ABC19BC18BCC5D10895F7
:101024000F934091B8005091B9006091BA0070914B
:10103400BB000091C0002091C1008CE790E00BDF61
:10104400ECE7F0E001900020E9F73197BF016C571D
:0C10540070408CE790E002D00F910895EE
:101060000F931F93CF93DF93FC01892B91F0808125
:10107000882379F0662369F0D62F8F01C0E092D1E2
:10108000CF5FF801EC0FF11D8081882311F0DC1394
:0C109000F6CFDF91CF911F910F910895D2
:10109C002F923F924F925F926F927F928F929F927C
:1010AC00AF92BF92CF92DF92EF92FF920F931F936A
:1010BC00CF93DF93CDB7DEB7CA1BDB0B0FB6F8941B
:0810CC00DEBF0FBECDBF099489
:1010D4002A88398848885F846E847D848C849B84C4
:1010E400AA84B984C884DF80EE80FD800C811B81D2
:1010F400AA81B981CE0FD11D0FB6F894DEBF0FBE01
:06110400CDBFED010895CE
:10110A00A0E0B0E0EAE8F8E0CECF6C01EB018A019A
:10111A007B01E40EF51ECE15DF0539F08991B60183
:10112A00082E000C990B15DCF6CFC801CDB7DEB737
:04113A00E8E0D5CF45
:10113E008091BE009091BF00892B49F48091BC0034
:10114E009091BD00892B19F433D154D00895F2D06B
:0C115E00882311F0C8DC089500DD08951E
:10116A008091BE009091BF00892B49F48091BC0008
:10117A009091BD00892B19F420D13ED00895DCD07E
:0C118A00882311F0ECDC0895B0DC08951F
:10119600A2E0B0E0E0EDF8E08CCF8C015A83498301
:1011A600AE014F5F5F4F17DDF801208124FF02C0BB
:0A11B6008FEF9FEF2296E4E098CF40
:1011C0008F938FB78F938091C2008F3120F08EE183
:1011D0008093C20003C08F5F8093C2008F918FBF46
:0411E0008F9118953E
:1011E40000DF2BD056D078948091C2008E3128F045
:0E11F4001092C20090D014DF98D0CADDF5CF63
:101202008BE490E09BBD8ABD9093BF008093BE00AB
:0E12120099BD88BD9093BD008093BC000895E7
:101220008FEF90E09BBD8ABD99BD88BD9093BF00B4
:0E1230008093BE009093BD008093BC00089593
:10123E00899A8898919890981BB88AB188698AB9CA
:0E124E00569810BC83E389B986E880BD0895E8
:10125C00A0E0B0E0E3E3F9E02BCFAE01475F5F4FD6
:0E126C006F8178858D819E8187D0E2E03DCF35
:10127A00A4D01BBC1ABC19BC18BC1092BF00109297
:0C128A00BE001092BD001092BC00089540
:1012960083B7846083BF83B7816083BF83B78D7F45
:0C12A60083BF12BE89B7816089BF089524
:1012B200FC01AF014F5F5F4F2081222311F0FA0141
:0C12C200F8CF9F01281B390BC9010895CB
:1012CE008FB580648FBD8FB580688FBD8FB58061FF
:0A12DE008FBD8FB580628FBD0895AB
:1012E8008FB58F7B8FBD8FB580688FBD8FB58F7E93
:0A12F8008FBD8FB580628FBD089591
:10130200A29FB001B39FC001A39F01D0B29F700DF5
:08131200811D1124911D0895B5
:10131A0083B78B7F83BF83B78E7F83BF83B78D7F6E
:04132A0083BF0895E0
:10132E0083B7846083BF83B7816083BF83B78D7FAC
:04133E0083BF0895CC
:10134200849B05C080B385FB882780F9089580E0DF
:021352000895FC
:101354009C01215631092A31310510F48F759927E2
:021364000895EA
:101366009C01215431092A31310508F4806208951F
:0E137600EC012AD028D0CE0128D0CE0127D0FD
:0C1384009A01AB016FEF7FE798DC089541
:0A1390008091BE009091BF00089507
:0A139A008091BC009091BD00089501
:0813A4005D9BFECF8CB908959A
:0613AC008C9A8D9A089551
:0613B200949A959A08953B
:0613B80094989598089539
:0613BE0087DFF8DF08954F
:0613C40091DFF8DF08953F
:0213CA001AC641
:0213CC00089582
:0213CE00089580
:0213D00008957E
:0213D20064D6DF
:1013D4007325643A25643A743A2563650073256479
:0A13E4003A25643A663A2563650075
:1013EE0068076C094C836A9074A07AC00080688884
:0613FE0000846C820081F6
:07140400286E756C6C2900D5
:06140B00286E696C290047
:011411006F6B
:0400000300001202E5
:00000001FF
