:1000000021C0C1C9C0C9BFC9BEC9BDC9BCC9BBC95E
:10001000BAC9B4C8B8C92BC5B6C9B5C9B4C9B3C97A
:10002000B2C9B1C9B0C90060008080008000AF00D3
:10003000139000AF00B78000B700B80013BF00B83E
:1000400000B9800011241FBECFE5D4E0DEBFCDBFD4
:10005000E6E2F0E040E017C0B591A5913591259119
:10006000059107FD0CC095918591EF01F92FE82FBF
:1000700005900D92A217B307D9F7FE0104C01D9297
:10008000A217B307E1F7E334F40731F789D851C970
:04009000F894FFCF12
:10009400AEE0B0E0EFE4F0E0B0C74C016B011A82CF
:1000A40019828FEF9FEF9C838B831E821D8258875A
:1000B4004F833A872987A12CB12CD6016D907C906F
:1000C400F301EA0DFB1D808181110FC0D601ED9370
:1000D400FC938081853209F0BEC13F01BFEF6B1AEA
:1000E4007B0AF6017182608218C0853279F3B4010B
:1000F400082E000C990B2AD44FEFA41AB40ADDCFB2
:100104008C32ACF08D32F9F489819A8181609A83C2
:1001140089833196D601ED93FC93D601ED91FC9140
:1001240080818B3269F789819A818460F0CF803233
:1001340021F489819A818860EACF833251F48981DC
:100144009A818061E4CF803321F489819A8182602D
:10015400DECFB701C60179D69E838D8397FF0BC08E
:1001640029813A81B1E02B273A832983919581959E
:1001740091099E838D8389819A8180FF03C08D7F3D
:100184009A838983D601ED91FC91119780818E32F7
:1001940041F43196ED93FC93B701C60156D69C8386
:1001A4008B83C601E9D6582ED601ED91FC9180814E
:1001B400082E000C990BB3D8893609F440C084F496
:1001C400833609F4F3C034F4853209F418C1813656
:1001D400D9F021C1843699F188360CF4CCC01BC106
:1001E400803709F490C03CF48E3609F4B0C08F36E1
:1001F40009F45AC010C18537E1F1883709F46EC09B
:10020400833709F008C1E5C0652D70E0A701CE0170
:100214000B96F4DE892B09F418C1D601ED91FC91FB
:100224001197CF0101968D939C932081AE01455F78
:100234005F4FBE016F5F7F4FC401E0DE03C1652DD8
:1002440070E0970141E050E0CE010B9660D2892B1B
:1002540009F4FBC0F601808191810196918380832A
:10026400AE01455F5F4FBE016F5F7F4FC401E1D1B7
:10027400E9C0652D70E0970140E050E0CE010B9697
:1002840046D2892B09F4E1C0D6018D919C91119736
:1002940001968D939C93AE01455F5F4FBE016F5FE6
:1002A4007F4FC4019FD3CEC0652D70E0970140E01D
:1002B40050E0CE010B962BD2892B09F4C6C0F6016F
:1002C40080819181019691838083AE01455F5F4F68
:1002D400BE016F5F7F4FC401E4D2B4C0652D70E0EE
:1002E400970140E050E0CE010B9611D2892B09F41E
:1002F400ACC0D601ED91FC911197CF0101968D937D
:100304009C9320811BC0970140E050E060EF70E0B7
:10031400CE010B96FCD1892B09F497C0F60180819C
:1003240091810196918380838B859C85892B29F407
:1003340020E030E049EA50E080C028E7AE01455FA4
:100344005F4FBE016F5F7F4FC40189D07BC0A501A1
:10035400400F511F652D70E09701CE010B964EDEC4
:10036400892B09F472C0D6018D919C911197019645
:100374008D939C9370C0652D70E0A701CE010B9600
:100384003DDE892B09F461C0D601ED91FC911197F2
:10039400CF0101968D939C932081AE01455F5F4F01
:1003A400BE016F5F7F4FC40129DE4CC0B0E85B1211
:1003B4004CC0F60180819181019691838083D7019D
:1003C400ED91FC911197CF0102968D939C938081BE
:1003D40020C0B0E85B1239C0F6018081918101969A
:1003E40091838083D701ED91FC911197CF010296FF
:1003F4008D939C934081518120E030E01EC0B0E891
:100404005B1223C0F601208131812F5F3F4F31837E
:1004140020838B870DC085E28B87D6016D927C92F9
:100424001A8219821E821D828FEF9FEF9C838B8319
:1004340021E030E0AE01455F5F4FBE016F5F7F4F4B
:10044400C40131D58A0D9B1D07C0F60180819181BD
:0E045400019691838083C5012E96EFE0EAC5E4
:10046200AFE0B0E0E6E3F2E0C6C51C016B015A83DF
:1004720049832B83FB018281938184809580008153
:100482001181A680B78097FD02C00D7F02C081E076
:1004920090E0E981FA814080518062807380980106
:1004A200207133273D832C83740104FF08C041145B
:1004B20051046104710419F032E0E31AF108F80101
:1004C200E870FF27FF83EE8303FF03C0F1E0EF1A1A
:1004D200F108F6010084F185E02D3197FF87EE8760
:1004E200EA0DFB1D10829C012E193F0939872887CE
:1004F200C801827099279B878A87EB818E2FEE0F26
:10050200990B9C01215431093D872C872E853F850B
:100512002230310530F48C819D81892B09F041C054
:100522005BC0411451046104710459F18E859F85A9
:1005320001979F878E87C2018F7099278A30910514
:1005420014F4C09602C0895A9F4FEC85FD857A97B4
:1005520040F49C012062215631092A31310508F408
:10056200D6D6EE85FF85EA0DFB1D8083F1E0EF1AFA
:10057200F10884E076946794579447948A95D1F76A
:10058200C5CF888599858E0D9F1D1816190674F2A0
:100592001E141F040CF0BFCFEA85FB85EF2B31F64A
:1005A200BACFE981FA8180819181A281B381892BBD
:1005B2008A2B8B2B89F0EE85FF85EA0DFB1D319787
:1005C2002B8120838E859F8502979F878E87FC01D2
:1005D200EA0DFB1D80E38083EE81FF81EF2B59F052
:1005E2002E853F85215031093F872E87F901EA0D7B
:1005F200FB1D80E28083F6014085518541505109FF
:100602002E853F85421B530BB9016A0D7B1D940158
:10061200C10185D39C01F1018081918190FF06C0C7
:10062200F60182819381821793070CF4C9012F96F8
:04063200E2E1FDC440
:10063600A2E0B0E0E0E2F3E0DCC43C016B01FB01C8
:1006460022813381A480B580808191819A838983B8
:1006560086809780FA012080318042805380B201E3
:10066600A10157FE07C044275527BA01421953096D
:100676006409750937FD03C08D7F9A8389839501C7
:1006860057FC05C0898182FD02C083FF02C021504C
:100696003109CE0101967C010AE010E0C6019ED028
:1006A60057FC03C0298122FF0AC00197F401E80F15
:1006B600F91F57FC02C02BE209C02DE207C023FF39
:1006C60006C00197F401E80FF91F20E22083098193
:1006D6001A81F6014085518541505109481B590B35
:1006E600B401680F791F9501C30117D39C01F3016B
:1006F6008081918190FF06C0F601828193818217E5
:0C07060093070CF4C9012296E2E18FC4B5
:10071200CF93DF93DC01F90168387105F1F05CF4E5
:100722006138710561F164387105A1F160387105B4
:1007320009F051C02FC0603C710509F441C0603F0F
:100742007105F1F1603A710509F045C0C081D181AE
:10075200CE0102969183808325C0C081D181CE01D2
:10076200029691838083452B39F04881042E000C38
:10077200550B660B770B1CC0488150E029C0C08125
:10078200D181CE01049691838083488159816A8107
:100792007B810EC0C081D181CE010296918380837C
:1007A200452BA1F048815981052E000C660B770B71
:1007B2004D935D936D937C93139781E090E00DC010
:1007C200C081D181CE010296918380834881598173
:1007D20060E070E0EDCF80E090E0DF91CF9108958E
:1007E200A0E0B0E0E6EFF3E008C4DC0128011696D1
:1007F200AD90BC901797F701808191811296ED918F
:10080200FC9113971896CD91DC9119972197F7FFD8
:1008120002C0E1E0F0E0CA0DDB1D18826901A1E02F
:10082200B0E08F01021B130B4C01F2E08F229924DE
:10083200052C000C66087708CE018A199B09CA1597
:10084200DB0511F1411551056105710581F0CB01FF
:10085200BA01A30192014ED3CA01A62FB72F605D40
:100862006A9341E0C41AD108A901BC01E5CF9801FD
:100872002C0D3D1D1216130654F31C141D0434F4E2
:100882008114910421F702C080E090E0AB2B31F497
:10089200F701208131812F7E31832083CDB7DEB7EE
:0408A200E0E1C7C307
:1008A600A2E0B0E0E8E5F4E0A8C34C016B01FB016F
:1008B6002281338164807580808191819A838983C6
:1008C600A680B78037FD03C08D7F9A838983FA019E
:1008D6004081518162817381CE0101967C0108E0DD
:1008E60010E09301C6017ADF298124FF06C0019733
:1008F600F501E80FF91F20E32083298123FF06C0B5
:100906000197F501E80FF91F20E2208309811A817A
:10091600F6014085518541505109481B590BB501D7
:10092600680F791F9301C401F8D19C01F4018081FD
:10093600918190FF06C0F601828193818217930709
:0A0946000CF4C9012296EEE074C320
:100950000F931F93CF93DF93DB01109719F48FEF61
:100960009FEF3DC02D913C91119730FF25C0169609
:100970004D915C91179714962D913C9115974217C4
:10098000530778F41296ED91FC9113978083129699
:100990002D913C9113972F5F3F4F13963C932E93CD
:1009A000129716962D913C9117972F5F3F4F1796F0
:1009B0003C932E93169713C01C96ED91FC911D97B6
:1009C000309769F2EB01092F182F0995892B39F619
:1009D0008E819F8101969F838E83812F902FDF913F
:0809E000CF911F910F910895C2
:1009E800A2E0B0E0E9EFF4E007C35C016B01FB01B2
:1009F8002281338184809580808191819A83898343
:100A08006680778037FD03C08D7F9A838983FA01DA
:100A18004081518162817381CE0101967C010AE097
:100A280010E09401C601D9DE09811A81F6014085DA
:100A3800518541505109481B590BB301680F791F63
:100A48009401C50169D19C01F5018081918190FFD4
:100A580006C0F60182819381821793070CF4C901BD
:060A68002296EEE0E5C25B
:100A6E001F920F920FB60F9211242F933F934F9315
:100A7E005F936F937F938F939F93AF93BF93EF93F8
:100A8E00FF938CB18436B9F028F4813691F082361A
:100A9E0041F012C0823759F0833729F08C3661F459
:100AAE0004C0C2D309C084D307C099D105C0C2D037
:100ABE0003C01CD301C004D3FF91EF91BF91AF913E
:100ACE009F918F917F916F915F914F913F912F9158
:0A0ADE000F900FBE0F901F901895A7
:100AE8008091B5009091B6002091B3003091B40088
:100AF80082179307BCF04E969093B6008093B5008A
:100B08009093B4008093B3008F3F91054CF49BBD44
:100B18008ABD8091B5009091B60099BD88BD0895B1
:100B280059D30895225E3F4F3093B4002093B30009
:100B38003093B6002093B5002F3F31054CF43BBDF0
:100B48002ABD8091B3009091B40099BD88BD0895E5
:040B580041D30895E8
:100B5C008091B5009091B6002091B3003091B40013
:100B6C0082179307BCF04E979093B6008093B50014
:100B7C009093B4008093B3008C3491054CF09BBDE2
:100B8C008ABD8091B5009091B60099BD88BD08953D
:100B9C004CD308952E5131093093B4002093B300F7
:100BAC003093B6002093B5002C3431054CF03BBD8E
:100BBC002ABD8091B3009091B40099BD88BD089571
:040BCC0034D3089581
:100BD000A2E8B0E0EDEEF5E015C25C014A01CF57A6
:100BE000DF4F79836883C158D040C12CD12CCF57B7
:100BF000DF4FE881F981C158D04080818823E1F03E
:100C00007401860120E830E0AE014F5F5F4FBE0106
:100C10006F577F4FC5013EDA8C0D9D1D8C159D05CC
:100C20004CF48FE490E090936100809360008FEF2C
:100C30009FEF03C06C01DBCFC601CE57DF4FECE066
:020C4000FDC1F4
:100C42008091B5009091B600892B41F48091B30058
:100C52009091B400892B11F492D3B0D28091B30059
:100C62009091B4004E979093B4008093B3008C346B
:100C720091054CF099BD88BD8091B5009091B60068
:100C8200892B71F0089519BC18BC1092B40010920F
:100C9200B3008091B5009091B600892B41F406C053
:100CA2008091B3009091B400892B09F468D3089520
:100CB200A0E1B0E0EEE5F6E0AAC1FB01BA01AE01A7
:100CC2004F5F5F4F7A0140E1D7011D924A95E9F7E4
:100CD20042E051E05A8349839C838B83F7FF09C02A
:100CE2008FE490E090936100809360008FEF9FEF1C
:100CF20013C0A9018C013197FE83ED83C70128D26D
:100D02004F8158852D813E814217530708F49A017D
:0E0D1200F801E20FF31F10826096E6E094C134
:100D2000A0E0B0E0E5E9F6E06DC16C015B017A019D
:100D3000E901480181E08822992400FD03C042179F
:100D4000530748F0A701B501C601A7D1EC16FD066F
:100D500010F0C70115C08E010E191F0901151105EC
:100D600039F0B60180E290E0F3DD01501109F6CFD1
:100D70008114910421F4A701B501C6018ED1CE01E1
:080D8000CDB7DEB7ECE05AC16B
:100D8800CF93E0D2C4E6C89F9001C99F300D1124CB
:100D9800A1E8B0E890D2880F892F881F990B919508
:100DA8009093B2008093B100D2D2C89F9001C99F9E
:100DB800300D1124A1E8B0E87ED2880F892F881F52
:100DC800990B91959093B0008093AF0094D28823AB
:100DD80021F082E78093B70003C08FE68093B700C5
:040DE800CF9108950A
:100DEC008091B5009091B600892B41F48091B300AD
:100DFC009091B400892BB9F4BDD2DBD18091B500B0
:100E0C009091B6004E979093B6008093B5008C34B9
:100E1C0091054CF09BBD8ABD8091B5009091B600B8
:100E2C00892B71F406C01BBC1ABC1092B600109230
:100E3C00B5008091B3009091B400892B09F49AD23B
:020E4C00089507
:100E4E00DC01ED91FC91119780818A3221F080E0D6
:100E5E0090E03AE00EC03196ED93FC93DB01ED91FC
:100E6E00FC911197CF0102968D939C938081918175
:100E7E000895ED91FC911197208120532A3068F44A
:100E8E00389FA001399F500D1124CA01820F911D68
:0C0E9E0031961196FC93EE93ECCF089572
:100EAA00A0E0B0E0EAE5F7E0AAC07C01FB01EA01B4
:100EBA00C901A280B380C480D580008111812097A6
:100ECA0011F4C2EAD0E0009711F4CE01CBD1B7FCFD
:100EDA0004C0A816B90608F4C5019601AC01BE0102
:0C0EEA00C70119DFCDB7DEB7EAE0A5C0F4
:100EF600A1E21A2EAA1BBB1BFD010DC0AA1FBB1F18
:100F0600EE1FFF1FA217B307E407F50720F0A21B89
:100F1600B30BE40BF50B661F771F881F991F1A94F6
:100F260069F760957095809590959B01AC01BD0120
:040F3600CF0108954A
:100F3A00B99ABA9AC198C29812D217D28EB581605C
:100F4A008EBD8EB582608EBD8EB58B7F8EBDA5D1CE
:100F5A008EB58F7E8EBD8EB5877F8EBD8FB58D7F08
:100F6A008FBD8FB581608FBD1BBC1ABC19BC18BC64
:020F7A000895D8
:100F7C00CF93DF93EC0190E0E92FF0E0EE0FFF1F31
:100F8C00E058FF4F8081811102C081810EC0A88181
:100F9C00B9812C91821305C091811196B983A883D4
:100FAC0001C09F5F9B3040F3892FDF91CF91089553
:100FBC000F931F93CF93DF93FC01892B91F08081CA
:100FCC00882379F0662369F0D62F8F01C0E0C2D157
:100FDC00CF5FF801EC0FF11D8081882311F0DC1339
:0C0FEC00F6CFDF91CF911F910F91089577
:100FF8002F923F924F925F926F927F928F929F9221
:10100800AF92BF92CF92DF92EF92FF920F931F930E
:10101800CF93DF93CDB7DEB7CA1BDB0B0FB6F894BF
:08102800DEBF0FBECDBF09942D
:101030002A88398848885F846E847D848C849B8468
:10104000AA84B984C884DF80EE80FD800C811B8176
:10105000AA81B981CE0FD11D0FB6F894DEBF0FBEA5
:06106000CDBFED01089573
:101066004091AF005091B0006091B1007091B20014
:101076002091B70082E690E053D0E2E6F0E00190DE
:101086000020E9F73197BF016256704082E690E092
:0410960092DF089548
:10109A00A0E0B0E0E2E5F8E0B4CF6C01EB018A0130
:1010AA007B01E40EF51ECE15DF0539F08991B601F4
:1010BA00082E000C990B47DCF6CFC801CDB7DEB776
:0410CA00E8E0BBCFD0
:1010CE008091B5009091B600892B49F48091B300C0
:1010DE009091B400892B19F449D16AD0089508D1A2
:0C10EE00882311F0FADC089532DD08952B
:1010FA008091B5009091B600892B49F48091B30094
:10110A009091B400892B19F436D154D00895F2D0B5
:0C111A00882311F01EDD0895E2DC08952A
:101126001F922F935F934F937F936F9326E930E03F
:101136003F932F939F938F936CD08DB79EB70A964C
:0C1146000FB6F8949EBF0FBE8DBF089539
:10115200A2E0B0E0EEEAF8E05CCF8C015A8349836A
:10116200AE014F5F5F4F33DDF801208124FF02C0E3
:0A1172008FEF9FEF2296E4E068CFB4
:10117C008F938FB78F938091B8008F3120F08EE1D1
:10118C008093B80003C08F5F8093B8008F918FBF9E
:04119C008F91189582
:1011A000CCDE2BD056D078948091B8008E3128F0C8
:0E11B0001092B80090D057DF98D0E6DDF5CF52
:1011BE008BE490E09BBD8ABD9093B6008093B50002
:0E11CE0099BD88BD9093B4008093B30008953E
:1011DC008FEF90E09BBD8ABD99BD88BD9093B60002
:0E11EC008093B5009093B4008093B3000895F3
:1011FA00899A8898919890981BB88AB188698AB90F
:0E120A00569810BC83E389B986E880BD08952C
:10121800A0E0B0E0E1E1F9E0FBCEAE01475F5F4F4F
:0E1228006F8178858D819E8187D0E2E00DCFA9
:10123600A4D01BBC1ABC19BC18BC1092B6001092E4
:0C124600B5001092B4001092B30008959F
:1012520083B7846083BF83B7816083BF83B78D7F89
:0C12620083BF12BE89B7816089BF089568
:10126E00FC01AF014F5F5F4F2081222311F0FA0185
:0C127E00F8CF9F01281B390BC90108950F
:10128A008FB580648FBD8FB580688FBD8FB5806143
:0A129A008FBD8FB580628FBD0895EF
:1012A4008FB58F7B8FBD8FB580688FBD8FB58F7ED7
:0A12B4008FBD8FB580628FBD0895D5
:1012BE00A29FB001B39FC001A39F01D0B29F700D3A
:0812CE00811D1124911D0895FA
:1012D60083B78B7F83BF83B78E7F83BF83B78D7FB3
:0412E60083BF089525
:1012EA0083B7846083BF83B7816083BF83B78D7FF1
:0412FA0083BF089511
:1012FE00849B05C080B385FB882780F9089580E024
:02130E00089540
:101310009C01215631092A31310510F48F75992726
:0213200008952E
:101322009C01215431092A31310508F48062089563
:0E133200EC012AD028D0CE0128D0CE0127D041
:0C1340009A01AB016FEF7FE7B4DC089569
:0A134C008091B5009091B60008955D
:0A1356008091B3009091B400089557
:081360005D9BFECF8CB90895DE
:061368008C9A8D9A089595
:06136E00949A959A08957F
:061374009498959808957D
:06137A0087DFF8DF089593
:0613800091DFF8DF089583
:021386003CC663
:021388000895C6
:02138A000895C4
:02138C000895C2
:02138E0080D607
:1013900068076C094C836A9074A07AC000806888E2
:0613A00000846C82008154
:0C13A6007325643A25643A2563650A004B
:0713B200286E756C6C290028
:0613B900286E696C29009A
:0113BF006FBE
:04000003000011BE2A
:00000001FF
